:100000000C945D000C9485000C9485000C94850084
:100010000C9485000C9485000C9485000C9485004C
:100020000C9485000C9485000C9485000C9485003C
:100030000C9485000C9485000C9485000C9485002C
:100040000C94EA030C9485000C945A040C94340428
:100050000C9485000C9485000C9485000C9485000C
:100060000C948C040C948500000000080002010030
:100070000003040700000000000000000000000072
:10008000250028002B0000000000240027002A0083
:10009000040404040404040402020202020203032E
:1000A0000303030301020408102040800102040836
:1000B0001020010204081020A70511241FBECFEF55
:1000C000D8E0DEBFCDBF11E0A0E0B1E0E2E2F5E1B3
:1000D00002C005900D92AC34B107D9F722E0ACE430
:1000E000B1E001C01D92AE36B207E1F710E0CDE5F8
:1000F000D0E004C02197FE010E94890ACC35D107C7
:10010000C9F70E94D4050C948F0A0C94000090E06B
:10011000FC01EC55FF4F249180579F4FFC018491C7
:10012000882399F090E0880F991FFC01EA57FF4F50
:10013000A591B491FC01E458FF4F859194918FB73C
:10014000F894EC91E22BEC938FBF089590E0FC01C2
:10015000E859FF4F2491FC01EC55FF4F3491FC010D
:10016000E057FF4FE491EE23C9F0222339F023300A
:1001700001F1A8F4213019F1223029F1F0E0EE0F5D
:10018000FF1FE458FF4FA591B4918FB7F894EC91FD
:10019000611126C030953E233C938FBF08952730D0
:1001A000A9F02830C9F0243049F7809180008F7D74
:1001B00003C0809180008F7780938000DFCF84B56B
:1001C0008F7784BDDBCF84B58F7DFBCF8091B0006E
:1001D0008F778093B000D2CF8091B0008F7DF9CF20
:1001E0003E2BDACFAF92BF92CF92DF92EF92FF9287
:1001F0000F931F93CF93DF936C017B018B01040F4F
:10020000151FEB015E01AE18BF08C017D10759F0EA
:100210006991D601ED91FC910190F081E02DC6012C
:100220000995892B79F7C501DF91CF911F910F9126
:10023000FF90EF90DF90CF90BF90AF900895FC01BA
:10024000538D448D252F30E0842F90E0821B930B3B
:10025000541710F0CF96089501970895FC01918DE1
:10026000828D981761F0A28DAE0FBF2FB11D5D96E4
:100270008C91928D9F5F9F73928F90E008958FEF86
:100280009FEF0895FC01918D828D981731F0828D3A
:10029000E80FF11D858D90E008958FEF9FEF089591
:1002A000FC01918D228D892F90E0805C9F4F821BF5
:1002B00091098F739927089581ED91E00E94500173
:1002C00021E0892B09F420E0822F089580E090E05E
:1002D000892B29F00E945C0181110C940000089583
:1002E000FC01A48DA80FB92FB11DA35ABF4F2C91AB
:1002F000848D90E001968F739927848FA689B789A2
:100300002C93A089B1898C91837080648C93938D98
:10031000848D981306C00288F389E02D80818F7D3B
:1003200080830895EF92FF920F931F93CF93DF93F3
:10033000EC0181E0888F9B8D8C8D98131AC0E88921
:10034000F989808185FF15C09FB7F894EE89FF89F0
:100350006083E889F98980818370806480839FBF8E
:1003600081E090E0DF91CF911F910F91FF90EF908E
:100370000895F62E0B8D10E00F5F1F4F0F7311279E
:10038000E02E8C8D8E110CC00FB607FCFACFE889D9
:10039000F989808185FFF5CFCE010E947001F1CFF0
:1003A000EB8DEC0FFD2FF11DE35AFF4FF0829FB74D
:1003B000F8940B8FEA89FB8980818062CFCFCF933D
:1003C000DF93EC01888D8823B9F0AA89BB89E8897D
:1003D000F9898C9185FD03C0808186FD0DC00FB623
:1003E00007FCF7CF8C9185FFF2CF808185FFEDCFA1
:1003F000CE010E947001E9CFDF91CF910895209145
:100400007301260F3327331F21323105ECF420917D
:100410009701FC0190E080E0243069F082E00895CB
:10042000A09173012191AC014D5A5E4FA40FB52FDD
:10043000B11D2C930196861798F380917301680F74
:100440006093730180E0089581E0089508958FEF2F
:100450009FEF08958FEF9FEF089580914C0190E0FA
:100460009195819591090895CF93DF93CB01EA018E
:10047000642F0E94FF01CE01DF91CF910895CF93A9
:10048000DF931F92CDB7DEB7698361E0CE0101969D
:100490000E94FF0181E090E00F90DF91CF910895DD
:1004A00090E080E008958EBD00000DB407FEFDCF02
:1004B0008EB50895FC0101900020E9F73197AF0156
:1004C000481B590BBC0181ED91E00C94F2008F9216
:1004D0009F92AF92BF920F931F93CF93DF93CDB7AD
:1004E000DEB7A1970FB6F894DEBF0FBECDBF19A23D
:1004F000423008F44AE08E010F5D1F4F842E912C8C
:10050000B12CA12CA50194010E94670AE62FB90124
:10051000CA01EA30F4F4E05DD801EE938D01232B9B
:10052000242B252B79F790E080E0109719F0CD016E
:100530000E945A02A1960FB6F894DEBF0FBECDBF3F
:10054000DF91CF911F910F91BF90AF909F908F90AF
:100550000895E95CE1CF4F925F926F927F928F9204
:100560009F92AF92BF92CF92DF92EF92FF926B0178
:100570007C01AC019B010E944D0A8823C1F082E1FD
:1005800091E00E945A027C018EE191E00E945A02A1
:100590008E0D9F1DFF90EF90DF90CF90BF90AF909A
:1005A0009F908F907F906F905F904F90089546013D
:1005B0005701E894B7F82FEF3FEF4FE75FE7C5012A
:1005C000B4010E944D0A81110DC02FEF3FEF4FE79C
:1005D0005FE7C501B4010E943D0818161CF486E1CE
:1005E00091E0CFCF2FEF3FEF4FE75FE4C701B601B8
:1005F0000E94950918161CF48AE191E0C2CF2FEFF2
:100600003FEF4FE75FECC701B6010E943D0887FD51
:10061000F3CF20E030E0A901C701B6010E943D08F8
:10062000B12CA12C87FF0AC06DE281ED91E00E9400
:1006300092015C01F7FAF094F7F8F0942AE037EDB4
:1006400043EA5BE3C701B6010E94D1072B013C01DD
:100650000E94B4086B017C010E94E3089B01AC017D
:10066000C301B2010E94D0072B013C014AE0C7013F
:10067000B6010E9467027C01EA0CFB1C6EE281ED70
:1006800091E00E949201E80EF91E20E030E040E285
:1006900051E4C301B2010E949A092B013C010E945E
:1006A000B4084B01B12CA12C4AE0C501B4010E9451
:1006B0006702E80EF91EC501B4010E94E3089B0120
:1006C000AC01C301B2010E94D00720E030E040E25B
:1006D00051E40E949A090E94B40890E080E04AE048
:1006E0000E946702E80EF91E4FCF1F93CF93DF934E
:1006F00085ED8093BC0080914F0190915001A091B5
:100700005101B09152010796A11DB11D23E0B6958C
:10071000A795979587952A95D1F72091BC0024FD40
:1007200003C01092970152C040914F015091500167
:100730006091510170915201452B462B472B69F373
:100740000097A105B10541F02AE22A95F1F700C012
:100750000197A109B109E1CF80914E01C1E0C09399
:100760004D01882399F1D091B8001091BA00809181
:10077000BC008A7B8093BC0060E082E10E94A600FE
:1007800060E083E10E94A60010929701C093990156
:100790001092980161E082E10E94A60061E083E18D
:1007A0000E94A6008091B9008E7F8093B90080914D
:1007B000B9008D7F8093B90088E48093B80085E408
:1007C0008093BC001093BA00D093B800DF91CF9112
:1007D0001F9108951F920F920FB60F9211242F931D
:1007E0003F938F939F93AF93BF938091CD0190914F
:1007F000CE01A091CF01B091D0013091CC0123E086
:10080000230F2D3758F50196A11DB11D2093CC0162
:100810008093CD019093CE01A093CF01B093D001EE
:100820008091C8019091C901A091CA01B091CB01FA
:100830000196A11DB11D8093C8019093C901A09399
:10084000CA01B093CB01BF91AF919F918F913F911E
:100850002F910F900FBE0F901F90189526E8230F31
:100860000296A11DB11DD2CF1F920F920FB60F920B
:1008700011242F933F934F935F936F937F938F93A5
:100880009F93AF93BF93EF93FF9381ED91E00E940D
:100890007001FF91EF91BF91AF919F918F917F91E7
:1008A0006F915F914F913F912F910F900FBE0F90DD
:1008B0001F9018951F920F920FB60F9211242F932D
:1008C0008F939F93EF93FF93E091E101F091E20109
:1008D0008081E091E701F091E80182FD1BC09081E9
:1008E0008091EA018F5F8F732091EB01821741F0B5
:1008F000E091EA01F0E0EF52FE4F958F8093EA011C
:10090000FF91EF919F918F912F910F900FBE0F90BC
:100910001F9018958081F4CF1F920F920FB60F92FF
:1009200011242F933F934F935F936F937F938F93F4
:100930009F93AF93BF93EF93FF938091B900887F0C
:10094000803609F44AC0F0F5883209F4A5C018F5DC
:10095000803109F499C0B8F4882309F4F5C08830CF
:1009600009F492C0FF91EF91BF91AF919F918F9148
:100970007F916F915F914F913F912F910F900FBE9B
:100980000F901F901895883109F486C0803251F776
:100990008093960114C0803409F49BC040F48033E6
:1009A000B9F38833F9F68093960185ECAEC08035B3
:1009B00009F483C0883509F494C0883499F60E94FC
:1009C0007503D0CF883909F48AC038F5883729F003
:1009D00050F4883611F0803729F683E08093970130
:1009E0001092950155C0883809F479C0803919F002
:1009F000803809F0B7CF80919501803208F06FC040
:100A0000E091950181E08E0F809395018091BB006C
:100A1000F0E0EB58FE4F80833BC0803B39F0D0F4D0
:100A2000803A09F477C0883A09F09CCF84E080933B
:100A300097011092740110927301F0E0E0E00995C3
:100A40008091730181110FC081E080937301109236
:100A5000530109C0803C09F4A8CF883C09F4A5CF14
:100A6000883B09F07FCFE091740181E08E0F809385
:100A70007401F0E0ED5AFE4F80818093BB009091AD
:100A800074018091730129C08091BC018093BB00E7
:100A900085EC8093BC0066CF9091BB018091BA0138
:100AA000981758F5E091BB0181E08E0F8093BB0150
:100AB000F0E0E656FE4F8081E9CFE091BB0181E096
:100AC0008E0F8093BB018091BB00F0E0E656FE4F95
:100AD00080839091BB018091BA019817C8F285E894
:100AE000D8CFE091BB0181E08E0F8093BB01809154
:100AF000BB00F0E0E656FE4F8083809199018111A2
:100B00005ECF81E08093980184EA8093BC001092CC
:100B1000970128CF85EC8093BC00109297018091BB
:100B20009501803230F4E0919501F0E0EB58FE4FF2
:100B300010826091950170E085E791E0F0E0E0E0DF
:100B40000995109295010ECF1092960138CFE1EDE4
:100B5000F1E01382128288EE93E0A0E0B0E084839B
:100B60009583A683B78384E091E09183808385ECAD
:100B700090E09587848784EC90E09787868780EC67
:100B800090E0918B808B81EC90E0938B828B82EC58
:100B900090E0958B848B86EC90E0978B868B118E02
:100BA000128E138E148E0895CF93DF93CDB7DEB7D8
:100BB00028970FB6F894DEBF0FBECDBF789484B5EA
:100BC000826084BD84B5816084BD85B5826085BD49
:100BD00085B5816085BD80916E00816080936E00D7
:100BE00010928100809181008260809381008091C9
:100BF000810081608093810080918000816080937A
:100C000080008091B10084608093B1008091B00039
:100C100081608093B00080917A00846080937A0034
:100C200080917A00826080937A0080917A0081605E
:100C300080937A0080917A00806880937A00109285
:100C4000C1008FB78983F8948091BD01811124C0C0
:100C5000EAE9F0E08491EEEAF0E09491E82FF0E028
:100C6000EE0FFF1FEA57FF4FA591B491EC91E923D6
:100C700021F461E08AE00E94A6008AE00E948700D9
:100C80008CB580618CBD8CB580648CBD8DE00E947C
:100C900087008BE00E9487008091BD018F5F809369
:100CA000BD0199819FBFE091E101F091E20182E0F5
:100CB0008083E091DD01F091DE011082E091DF019F
:100CC000F091E00180E180831092E901E091E5017B
:100CD000F091E60186E08083E091E301F091E40188
:100CE000808180618083E091E301F091E401808163
:100CF00088608083E091E301F091E4018081806865
:100D00008083E091E301F091E40180818F7D808315
:100D10008AE00E94870006E511E00CBD1DBD60E081
:100D20008AE00E94A60080E80E94530280EB0E94A5
:100D3000530261E08AE00E94A60060E08AE00E941F
:100D4000A60081E00E9453028FEF0E945302F82E0A
:100D50008093BF018FEF0E945302E82E8093BE0163
:100D600061E08AE00E94A600B7017695679590E061
:100D700080E00E94E3086093C0017093C1018093FA
:100D8000C2019093C30160E08AE00E94A60080E85F
:100D90000E94530280E90E94530261E08AE00E94AF
:100DA000A60081E291E00E945A026091C001709118
:100DB000C1018091C2019091C3010E94AB0220E069
:100DC00030E040E058E36091C0017091C101809132
:100DD000C2019091C3010E949A0920E030E047EDE2
:100DE00053E40E949A096B017C012FE63DE646EC34
:100DF00052EB0E949A0926E133E843E957E30E9447
:100E0000D1070E940D0A22E331E140E85BE30E9432
:100E1000D0072FE735E04BE955EB0E94420860937D
:100E2000C4017093C5018093C6019093C70120E06F
:100E300030E0A9010E94950987FD25C086E391E075
:100E40000E945A026091C4017091C5018091C6014F
:100E50009091C7010E94AB026091C4017091C501DD
:100E60008091C6019091C7010E94AB0280E090E0A2
:100E7000892B09F452CF0E945C01882309F44DCFDD
:100E80000E9400004ACF20E030E048EC52E4C70165
:100E9000B6010E94420820E030E048EC52E40E9493
:100EA0009A096B017C01AC019B010E949A092B01FC
:100EB0003C01AC019B01C701B6010E949A094B019C
:100EC0005C01AC019B01C701B6010E949A096983CC
:100ED0007A838B839C832BE532E44EE050E4C70198
:100EE000B6010E949A092FE135E042E753E40E94DF
:100EF000D0076D837E838F83988724E338E749E2A8
:100F00005BE3C301B2010E949A099B01AC016D81B0
:100F10007E818F8198850E94D1072B013C0126E0BC
:100F20003FEE41EA56E3C501B4010E949A099B01D4
:100F3000AC01C301B2010E94D0074B015C0123E167
:100F400037E142EF52E369817A818B819C810E9473
:100F50009A099B01AC01C501B4010E94D0074B0165
:100F60005C0129813A814B815C81C701B6010E94F5
:100F70009A092BE339E947E25FE20E949A099B0153
:100F8000AC01C501B4010E94D1076093C401709304
:100F9000C5018093C6019093C7018DE391E050CFC6
:100FA0005058BB27AA270E94E8070C945B090E94AF
:100FB0004D0938F00E94540920F039F49F3F19F48C
:100FC00026F40C944A090EF4E095E7FB0C944409CE
:100FD000E92F0E946C0958F3BA1762077307840758
:100FE000950720F079F4A6F50C948E090EF4E0959F
:100FF0000B2EBA2FA02D0B01B90190010C01CA01D3
:10100000A0011124FF27591B99F0593F50F4503E7D
:1010100068F11A16F040A22F232F342F4427585F6F
:10102000F3CF469537952795A795F0405395C9F787
:101030007EF41F16BA0B620B730B840BBAF091503F
:10104000A1F0FF0FBB1F661F771F881FC2F70EC0DE
:10105000BA0F621F731F841F48F4879577956795B1
:10106000B795F7959E3F08F0B0CF9395880F08F09D
:101070009927EE0F9795879508950E94200908F407
:1010800081E008950E9456080C945B090E9454095F
:1010900058F00E944D0940F029F45F3F29F00C946C
:1010A000440951110C948F090C944A090E946C094F
:1010B00068F39923B1F3552391F3951B550BBB2787
:1010C000AA2762177307840738F09F5F5F4F220FCC
:1010D000331F441FAA1FA9F335D00E2E3AF0E0E8C3
:1010E00032D091505040E695001CCAF72BD0FE2F0D
:1010F00029D0660F771F881FBB1F261737074807A1
:10110000AB07B0E809F0BB0B802DBF01FF27935858
:101110005F4F3AF09E3F510578F00C9444090C94CF
:101120008F095F3FE4F3983ED4F3869577956795F2
:10113000B795F7959F5FC9F7880F911D969587958D
:1011400097F90895E1E0660F771F881FBB1F6217AC
:1011500073078407BA0720F0621B730B840BBA0B6A
:10116000EE1F88F7E09508950E94740988F09F5754
:1011700098F0B92F9927B751B0F0E1F0660F771FBB
:10118000881F991F1AF0BA95C9F714C0B13091F0B1
:101190000E948E09B1E008950C948E09672F782F74
:1011A0008827B85F39F0B93FCCF386957795679576
:1011B000B395D9F73EF490958095709561957F4FE2
:1011C0008F4F9F4F0895E89409C097FB3EF4909588
:1011D0008095709561957F4F8F4F9F4F9923A9F010
:1011E000F92F96E9BB279395F6958795779567959F
:1011F000B795F111F8CFFAF4BB0F11F460FF1BC0E3
:101200006F5F7F4F8F4F9F4F16C0882311F096E975
:1012100011C0772321F09EE8872F762F05C0662323
:1012200071F096E8862F70E060E02AF09A95660FDC
:10123000771F881FDAF7880F9695879597F9089595
:10124000990F0008550FAA0BE0E8FEEF16161706D7
:10125000E807F907C0F012161306E407F50798F03F
:10126000621B730B840B950B39F40A2661F0232B58
:10127000242B252B21F408950A2609F4A140A695D4
:101280008FEF811D811D089597F99F6780E870E0B9
:1012900060E008959FEF80EC089500240A941616EC
:1012A000170618060906089500240A941216130654
:1012B000140605060895092E0394000C11F48823E2
:1012C00052F0BB0F40F4BF2B11F460FF04C06F5FFE
:1012D0007F4F8F4F9F4F089557FD9058440F551FD4
:1012E00059F05F3F71F04795880F97FB991F61F0A8
:1012F0009F3F79F087950895121613061406551F1F
:10130000F2CF4695F1DF08C0161617061806991F8A
:10131000F1CF86957105610508940895E894BB277F
:1013200066277727CB0197F908950E94200908F4D2
:101330008FEF08950E94AD090C945B090E944D093E
:1013400038F00E94540920F0952311F00C944409C0
:101350000C944A0911240C948F090E946C0970F3B3
:10136000959FC1F3950F50E0551F629FF001729F4A
:10137000BB27F00DB11D639FAA27F00DB11DAA1F59
:10138000649F6627B00DA11D661F829F2227B00DA6
:10139000A11D621F739FB00DA11D621F839FA00D31
:1013A000611D221F749F3327A00D611D231F849F81
:1013B000600D211D822F762F6A2F11249F575040D8
:1013C0009AF0F1F088234AF0EE0FFF1FBB1F661F53
:1013D000771F881F91505040A9F79E3F510580F01C
:1013E0000C9444090C948F095F3FE4F3983ED4F3C6
:1013F000869577956795B795F795E7959F5FC1F7C0
:10140000FE2B880F911D9695879597F9089519F4ED
:1014100016F40C944A090C94520A0E947409B8F309
:101420009923C9F3B6F39F57550B87FF0E94600AB3
:101430000024A0E640EA900180585695979528F43C
:10144000805C660F771F881F20F026173707480734
:1014500030F4621B730B840B202931294A2BA6958B
:1014600017940794202531254A2758F7660F771FD0
:10147000881F20F026173707480730F4620B730BDC
:10148000840B200D311D411DA09581F7B901842FDA
:101490009158880F9695879508950E942009880B8A
:1014A000990B08959F3F31F0915020F487957795DF
:1014B0006795B795880F911D9695879597F908952B
:1014C00091505040660F771F881FD2F70895A1E210
:1014D0001A2EAA1BBB1BFD010DC0AA1FBB1FEE1FAE
:1014E000FF1FA217B307E407F50720F0A21BB30BF9
:1014F000E40BF50B661F771F881F991F1A9469F775
:1015000060957095809590959B01AC01BD01CF01D0
:101510000895EE0FFF1F0590F491E02D0994F894C3
:02152000FFCFFB
:10152200000000009201F2001F01DF0150012E01B4
:1015320042016E616E00696E66006F7666000D0A8A
:10154200004C612072657369736E74656E636961C4
:101552002065733A200054656D703A200054656D21
:0C15620070657261747572653A200000BB
:00000001FF
